{
  "_format": "hh-sol-artifact-1",
  "contractName": "Thoughts",
  "sourceName": "contracts/Thought.sol",
  "abi": [
    {
      "inputs": [],
      "name": "getThoughts",
      "outputs": [
        {
          "components": [
            {
              "internalType": "address",
              "name": "author",
              "type": "address"
            },
            {
              "internalType": "string",
              "name": "content",
              "type": "string"
            },
            {
              "internalType": "uint256",
              "name": "timestamp",
              "type": "uint256"
            }
          ],
          "internalType": "struct Thoughts.Thought[]",
          "name": "",
          "type": "tuple[]"
        }
      ],
      "stateMutability": "view",
      "type": "function"
    },
    {
      "inputs": [
        {
          "internalType": "address",
          "name": "_wallet",
          "type": "address"
        }
      ],
      "name": "getUser",
      "outputs": [
        {
          "components": [
            {
              "internalType": "address",
              "name": "wallet",
              "type": "address"
            },
            {
              "internalType": "string",
              "name": "name",
              "type": "string"
            },
            {
              "internalType": "string",
              "name": "username",
              "type": "string"
            },
            {
              "internalType": "string",
              "name": "bio",
              "type": "string"
            },
            {
              "internalType": "string",
              "name": "avatar",
              "type": "string"
            }
          ],
          "internalType": "struct Thoughts.User",
          "name": "",
          "type": "tuple"
        }
      ],
      "stateMutability": "view",
      "type": "function"
    },
    {
      "inputs": [
        {
          "internalType": "string",
          "name": "_content",
          "type": "string"
        }
      ],
      "name": "postThought",
      "outputs": [],
      "stateMutability": "nonpayable",
      "type": "function"
    },
    {
      "inputs": [
        {
          "internalType": "string",
          "name": "_username",
          "type": "string"
        },
        {
          "internalType": "string",
          "name": "_name",
          "type": "string"
        },
        {
          "internalType": "string",
          "name": "_bio",
          "type": "string"
        },
        {
          "internalType": "string",
          "name": "_avatar",
          "type": "string"
        }
      ],
      "name": "signup",
      "outputs": [],
      "stateMutability": "nonpayable",
      "type": "function"
    },
    {
      "inputs": [
        {
          "internalType": "uint256",
          "name": "",
          "type": "uint256"
        }
      ],
      "name": "thoughts",
      "outputs": [
        {
          "internalType": "address",
          "name": "author",
          "type": "address"
        },
        {
          "internalType": "string",
          "name": "content",
          "type": "string"
        },
        {
          "internalType": "uint256",
          "name": "timestamp",
          "type": "uint256"
        }
      ],
      "stateMutability": "view",
      "type": "function"
    },
    {
      "inputs": [
        {
          "internalType": "address",
          "name": "",
          "type": "address"
        }
      ],
      "name": "usernames",
      "outputs": [
        {
          "internalType": "string",
          "name": "",
          "type": "string"
        }
      ],
      "stateMutability": "view",
      "type": "function"
    },
    {
      "inputs": [
        {
          "internalType": "string",
          "name": "",
          "type": "string"
        }
      ],
      "name": "users",
      "outputs": [
        {
          "internalType": "address",
          "name": "wallet",
          "type": "address"
        },
        {
          "internalType": "string",
          "name": "name",
          "type": "string"
        },
        {
          "internalType": "string",
          "name": "username",
          "type": "string"
        },
        {
          "internalType": "string",
          "name": "bio",
          "type": "string"
        },
        {
          "internalType": "string",
          "name": "avatar",
          "type": "string"
        }
      ],
      "stateMutability": "view",
      "type": "function"
    }
  ],
  "bytecode": "0x608060405234801561001057600080fd5b50611a79806100206000396000f3fe608060405234801561001057600080fd5b506004361061007d5760003560e01c80636f77926b1161005b5780636f77926b146100f0578063e79e519514610120578063ee91877c14610152578063fcf58fa5146101825761007d565b806314f2f2c0146100825780635ff86b8b1461009e578063689e1c03146100bc575b600080fd5b61009c60048036038101906100979190611051565b61019e565b005b6100a661038a565b6040516100b391906115ca565b60405180910390f35b6100d660048036038101906100d19190611051565b6104db565b6040516100e795949392919061151d565b60405180910390f35b61010a60048036038101906101059190611028565b610767565b60405161011791906116ae565b60405180910390f35b61013a60048036038101906101359190611155565b610a7b565b6040516101499392919061158c565b60405180910390f35b61016c60048036038101906101679190611028565b610b5d565b60405161017991906115ec565b60405180910390f35b61019c60048036038101906101979190611092565b610bfd565b005b6000600160003373ffffffffffffffffffffffffffffffffffffffff1673ffffffffffffffffffffffffffffffffffffffff16815260200190815260200160002080546101ea9061182a565b90501161022c576040517f08c379a00000000000000000000000000000000000000000000000000000000081526004016102239061162e565b60405180910390fd5b6000815111610270576040517f08c379a00000000000000000000000000000000000000000000000000000000081526004016102679061168e565b60405180910390fd5b60c8815111156102b5576040517f08c379a00000000000000000000000000000000000000000000000000000000081526004016102ac9061160e565b60405180910390fd5b600060405180606001604052803373ffffffffffffffffffffffffffffffffffffffff168152602001838152602001428152509050600081908060018154018082558091505060019003906000526020600020906003020160009091909190915060008201518160000160006101000a81548173ffffffffffffffffffffffffffffffffffffffff021916908373ffffffffffffffffffffffffffffffffffffffff1602179055506020820151816001019080519060200190610379929190610eae565b506040820151816002015550505050565b60606000805480602002602001604051908101604052809291908181526020016000905b828210156104d257838290600052602060002090600302016040518060600160405290816000820160009054906101000a900473ffffffffffffffffffffffffffffffffffffffff1673ffffffffffffffffffffffffffffffffffffffff1673ffffffffffffffffffffffffffffffffffffffff1681526020016001820180546104379061182a565b80601f01602080910402602001604051908101604052809291908181526020018280546104639061182a565b80156104b05780601f10610485576101008083540402835291602001916104b0565b820191906000526020600020905b81548152906001019060200180831161049357829003601f168201915b50505050508152602001600282015481525050815260200190600101906103ae565b50505050905090565b6002818051602081018201805184825260208301602085012081835280955050505050506000915090508060000160009054906101000a900473ffffffffffffffffffffffffffffffffffffffff169080600101805461053a9061182a565b80601f01602080910402602001604051908101604052809291908181526020018280546105669061182a565b80156105b35780601f10610588576101008083540402835291602001916105b3565b820191906000526020600020905b81548152906001019060200180831161059657829003601f168201915b5050505050908060020180546105c89061182a565b80601f01602080910402602001604051908101604052809291908181526020018280546105f49061182a565b80156106415780601f1061061657610100808354040283529160200191610641565b820191906000526020600020905b81548152906001019060200180831161062457829003601f168201915b5050505050908060030180546106569061182a565b80601f01602080910402602001604051908101604052809291908181526020018280546106829061182a565b80156106cf5780601f106106a4576101008083540402835291602001916106cf565b820191906000526020600020905b8154815290600101906020018083116106b257829003601f168201915b5050505050908060040180546106e49061182a565b80601f01602080910402602001604051908101604052809291908181526020018280546107109061182a565b801561075d5780601f106107325761010080835404028352916020019161075d565b820191906000526020600020905b81548152906001019060200180831161074057829003601f168201915b5050505050905085565b61076f610f34565b6002600160008473ffffffffffffffffffffffffffffffffffffffff1673ffffffffffffffffffffffffffffffffffffffff1681526020019081526020016000206040516107bd9190611506565b90815260200160405180910390206040518060a00160405290816000820160009054906101000a900473ffffffffffffffffffffffffffffffffffffffff1673ffffffffffffffffffffffffffffffffffffffff1673ffffffffffffffffffffffffffffffffffffffff16815260200160018201805461083c9061182a565b80601f01602080910402602001604051908101604052809291908181526020018280546108689061182a565b80156108b55780601f1061088a576101008083540402835291602001916108b5565b820191906000526020600020905b81548152906001019060200180831161089857829003601f168201915b505050505081526020016002820180546108ce9061182a565b80601f01602080910402602001604051908101604052809291908181526020018280546108fa9061182a565b80156109475780601f1061091c57610100808354040283529160200191610947565b820191906000526020600020905b81548152906001019060200180831161092a57829003601f168201915b505050505081526020016003820180546109609061182a565b80601f016020809104026020016040519081016040528092919081815260200182805461098c9061182a565b80156109d95780601f106109ae576101008083540402835291602001916109d9565b820191906000526020600020905b8154815290600101906020018083116109bc57829003601f168201915b505050505081526020016004820180546109f29061182a565b80601f0160208091040260200160405190810160405280929190818152602001828054610a1e9061182a565b8015610a6b5780601f10610a4057610100808354040283529160200191610a6b565b820191906000526020600020905b815481529060010190602001808311610a4e57829003601f168201915b5050505050815250509050919050565b60008181548110610a8b57600080fd5b90600052602060002090600302016000915090508060000160009054906101000a900473ffffffffffffffffffffffffffffffffffffffff1690806001018054610ad49061182a565b80601f0160208091040260200160405190810160405280929190818152602001828054610b009061182a565b8015610b4d5780601f10610b2257610100808354040283529160200191610b4d565b820191906000526020600020905b815481529060010190602001808311610b3057829003601f168201915b5050505050908060020154905083565b60016020528060005260406000206000915090508054610b7c9061182a565b80601f0160208091040260200160405190810160405280929190818152602001828054610ba89061182a565b8015610bf55780601f10610bca57610100808354040283529160200191610bf5565b820191906000526020600020905b815481529060010190602001808311610bd857829003601f168201915b505050505081565b6000600160003373ffffffffffffffffffffffffffffffffffffffff1673ffffffffffffffffffffffffffffffffffffffff1681526020019081526020016000208054610c499061182a565b905014610c8b576040517f08c379a0000000000000000000000000000000000000000000000000000000008152600401610c829061164e565b60405180910390fd5b600073ffffffffffffffffffffffffffffffffffffffff16600285604051610cb391906114ef565b908152602001604051809103902060000160009054906101000a900473ffffffffffffffffffffffffffffffffffffffff1673ffffffffffffffffffffffffffffffffffffffff1614610d3b576040517f08c379a0000000000000000000000000000000000000000000000000000000008152600401610d329061166e565b60405180910390fd5b6040518060a001604052803373ffffffffffffffffffffffffffffffffffffffff16815260200184815260200185815260200183815260200182815250600285604051610d8891906114ef565b908152602001604051809103902060008201518160000160006101000a81548173ffffffffffffffffffffffffffffffffffffffff021916908373ffffffffffffffffffffffffffffffffffffffff1602179055506020820151816001019080519060200190610df9929190610eae565b506040820151816002019080519060200190610e16929190610eae565b506060820151816003019080519060200190610e33929190610eae565b506080820151816004019080519060200190610e50929190610eae565b5090505083600160003373ffffffffffffffffffffffffffffffffffffffff1673ffffffffffffffffffffffffffffffffffffffff1681526020019081526020016000209080519060200190610ea7929190610eae565b5050505050565b828054610eba9061182a565b90600052602060002090601f016020900481019282610edc5760008555610f23565b82601f10610ef557805160ff1916838001178555610f23565b82800160010185558215610f23579182015b82811115610f22578251825591602001919060010190610f07565b5b509050610f309190610f79565b5090565b6040518060a00160405280600073ffffffffffffffffffffffffffffffffffffffff168152602001606081526020016060815260200160608152602001606081525090565b5b80821115610f92576000816000905550600101610f7a565b5090565b6000610fa9610fa4846116f5565b6116d0565b905082815260208101848484011115610fc157600080fd5b610fcc8482856117e8565b509392505050565b600081359050610fe381611a15565b92915050565b600082601f830112610ffa57600080fd5b813561100a848260208601610f96565b91505092915050565b60008135905061102281611a2c565b92915050565b60006020828403121561103a57600080fd5b600061104884828501610fd4565b91505092915050565b60006020828403121561106357600080fd5b600082013567ffffffffffffffff81111561107d57600080fd5b61108984828501610fe9565b91505092915050565b600080600080608085870312156110a857600080fd5b600085013567ffffffffffffffff8111156110c257600080fd5b6110ce87828801610fe9565b945050602085013567ffffffffffffffff8111156110eb57600080fd5b6110f787828801610fe9565b935050604085013567ffffffffffffffff81111561111457600080fd5b61112087828801610fe9565b925050606085013567ffffffffffffffff81111561113d57600080fd5b61114987828801610fe9565b91505092959194509250565b60006020828403121561116757600080fd5b600061117584828501611013565b91505092915050565b600061118a83836113f6565b905092915050565b61119b816117ac565b82525050565b6111aa816117ac565b82525050565b60006111bb8261174b565b6111c5818561176e565b9350836020820285016111d785611726565b8060005b8581101561121357848403895281516111f4858261117e565b94506111ff83611761565b925060208a019950506001810190506111db565b50829750879550505050505092915050565b600061123082611756565b61123a818561177f565b935061124a8185602086016117f7565b611253816118eb565b840191505092915050565b600061126982611756565b6112738185611790565b93506112838185602086016117f7565b61128c816118eb565b840191505092915050565b60006112a282611756565b6112ac81856117a1565b93506112bc8185602086016117f7565b80840191505092915050565b600081546112d58161182a565b6112df81866117a1565b945060018216600081146112fa576001811461130b5761133e565b60ff1983168652818601935061133e565b61131485611736565b60005b8381101561133657815481890152600182019150602081019050611317565b838801955050505b50505092915050565b6000611354601483611790565b915061135f826118fc565b602082019050919050565b6000611377602683611790565b915061138282611925565b604082019050919050565b600061139a600583611790565b91506113a582611974565b602082019050919050565b60006113bd602983611790565b91506113c88261199d565b604082019050919050565b60006113e0601783611790565b91506113eb826119ec565b602082019050919050565b600060608301600083015161140e6000860182611192565b50602083015184820360208601526114268282611225565b915050604083015161143b60408601826114d1565b508091505092915050565b600060a08301600083015161145e6000860182611192565b50602083015184820360208601526114768282611225565b915050604083015184820360408601526114908282611225565b915050606083015184820360608601526114aa8282611225565b915050608083015184820360808601526114c48282611225565b9150508091505092915050565b6114da816117de565b82525050565b6114e9816117de565b82525050565b60006114fb8284611297565b915081905092915050565b600061151282846112c8565b915081905092915050565b600060a08201905061153260008301886111a1565b8181036020830152611544818761125e565b90508181036040830152611558818661125e565b9050818103606083015261156c818561125e565b90508181036080830152611580818461125e565b90509695505050505050565b60006060820190506115a160008301866111a1565b81810360208301526115b3818561125e565b90506115c260408301846114e0565b949350505050565b600060208201905081810360008301526115e481846111b0565b905092915050565b60006020820190508181036000830152611606818461125e565b905092915050565b6000602082019050818103600083015261162781611347565b9050919050565b600060208201905081810360008301526116478161136a565b9050919050565b600060208201905081810360008301526116678161138d565b9050919050565b60006020820190508181036000830152611687816113b0565b9050919050565b600060208201905081810360008301526116a7816113d3565b9050919050565b600060208201905081810360008301526116c88184611446565b905092915050565b60006116da6116eb565b90506116e6828261185c565b919050565b6000604051905090565b600067ffffffffffffffff8211156117105761170f6118bc565b5b611719826118eb565b9050602081019050919050565b6000819050602082019050919050565b60008190508160005260206000209050919050565b600081519050919050565b600081519050919050565b6000602082019050919050565b600082825260208201905092915050565b600082825260208201905092915050565b600082825260208201905092915050565b600081905092915050565b60006117b7826117be565b9050919050565b600073ffffffffffffffffffffffffffffffffffffffff82169050919050565b6000819050919050565b82818337600083830152505050565b60005b838110156118155780820151818401526020810190506117fa565b83811115611824576000848401525b50505050565b6000600282049050600182168061184257607f821691505b602082108114156118565761185561188d565b5b50919050565b611865826118eb565b810181811067ffffffffffffffff82111715611884576118836118bc565b5b80604052505050565b7f4e487b7100000000000000000000000000000000000000000000000000000000600052602260045260246000fd5b7f4e487b7100000000000000000000000000000000000000000000000000000000600052604160045260246000fd5b6000601f19601f8301169050919050565b7f74686f7567687420697320746f6f206c6f6e672e000000000000000000000000600082015250565b7f796f75206d757374205369676e696e2066697273742c20746f20706f7374207460008201527f686f756768740000000000000000000000000000000000000000000000000000602082015250565b7f636865636b000000000000000000000000000000000000000000000000000000600082015250565b7f557365726e616d652069732074616b656e2c20706c656173652074727920616e60008201527f6f74686572206f6e650000000000000000000000000000000000000000000000602082015250565b7f74686f756768742063616e6e6f7420626520656d707479000000000000000000600082015250565b611a1e816117ac565b8114611a2957600080fd5b50565b611a35816117de565b8114611a4057600080fd5b5056fea2646970667358221220dd50a4ac879cee766935dbbd13559dd40af3e2b5dcf8b45f5f39c282202e459164736f6c63430008040033",
  "linkReferences": {},
  "deployedLinkReferences": {}
}