{
  "_format": "hh-sol-artifact-1",
  "contractName": "Thoughts",
  "sourceName": "contracts/Thought.sol",
  "abi": [
    {
      "inputs": [],
      "name": "getThoughts",
      "outputs": [
        {
          "components": [
            {
              "internalType": "address",
              "name": "author",
              "type": "address"
            },
            {
              "internalType": "string",
              "name": "authorName",
              "type": "string"
            },
            {
              "internalType": "string",
              "name": "content",
              "type": "string"
            },
            {
              "internalType": "uint256",
              "name": "timestamp",
              "type": "uint256"
            }
          ],
          "internalType": "struct Thoughts.Thought[]",
          "name": "",
          "type": "tuple[]"
        }
      ],
      "stateMutability": "view",
      "type": "function"
    },
    {
      "inputs": [
        {
          "internalType": "address",
          "name": "_wallet",
          "type": "address"
        }
      ],
      "name": "getUser",
      "outputs": [
        {
          "components": [
            {
              "internalType": "address",
              "name": "wallet",
              "type": "address"
            },
            {
              "internalType": "string",
              "name": "name",
              "type": "string"
            },
            {
              "internalType": "string",
              "name": "username",
              "type": "string"
            },
            {
              "internalType": "string",
              "name": "bio",
              "type": "string"
            },
            {
              "internalType": "string",
              "name": "avatar",
              "type": "string"
            }
          ],
          "internalType": "struct Thoughts.User",
          "name": "",
          "type": "tuple"
        }
      ],
      "stateMutability": "view",
      "type": "function"
    },
    {
      "inputs": [
        {
          "internalType": "string",
          "name": "_content",
          "type": "string"
        }
      ],
      "name": "postThought",
      "outputs": [],
      "stateMutability": "nonpayable",
      "type": "function"
    },
    {
      "inputs": [
        {
          "internalType": "string",
          "name": "_username",
          "type": "string"
        },
        {
          "internalType": "string",
          "name": "_name",
          "type": "string"
        },
        {
          "internalType": "string",
          "name": "_bio",
          "type": "string"
        },
        {
          "internalType": "string",
          "name": "_avatar",
          "type": "string"
        }
      ],
      "name": "signup",
      "outputs": [],
      "stateMutability": "nonpayable",
      "type": "function"
    },
    {
      "inputs": [
        {
          "internalType": "uint256",
          "name": "",
          "type": "uint256"
        }
      ],
      "name": "thoughts",
      "outputs": [
        {
          "internalType": "address",
          "name": "author",
          "type": "address"
        },
        {
          "internalType": "string",
          "name": "authorName",
          "type": "string"
        },
        {
          "internalType": "string",
          "name": "content",
          "type": "string"
        },
        {
          "internalType": "uint256",
          "name": "timestamp",
          "type": "uint256"
        }
      ],
      "stateMutability": "view",
      "type": "function"
    },
    {
      "inputs": [
        {
          "internalType": "address",
          "name": "",
          "type": "address"
        }
      ],
      "name": "usernames",
      "outputs": [
        {
          "internalType": "string",
          "name": "",
          "type": "string"
        }
      ],
      "stateMutability": "view",
      "type": "function"
    },
    {
      "inputs": [
        {
          "internalType": "string",
          "name": "",
          "type": "string"
        }
      ],
      "name": "users",
      "outputs": [
        {
          "internalType": "address",
          "name": "wallet",
          "type": "address"
        },
        {
          "internalType": "string",
          "name": "name",
          "type": "string"
        },
        {
          "internalType": "string",
          "name": "username",
          "type": "string"
        },
        {
          "internalType": "string",
          "name": "bio",
          "type": "string"
        },
        {
          "internalType": "string",
          "name": "avatar",
          "type": "string"
        }
      ],
      "stateMutability": "view",
      "type": "function"
    }
  ],
  "bytecode": "0x608060405234801561001057600080fd5b50611cb3806100206000396000f3fe608060405234801561001057600080fd5b506004361061007d5760003560e01c80636f77926b1161005b5780636f77926b146100f0578063e79e519514610120578063ee91877c14610153578063fcf58fa5146101835761007d565b806314f2f2c0146100825780635ff86b8b1461009e578063689e1c03146100bc575b600080fd5b61009c6004803603810190610097919061125c565b61019f565b005b6100a6610475565b6040516100b39190611804565b60405180910390f35b6100d660048036038101906100d1919061125c565b610658565b6040516100e7959493929190611742565b60405180910390f35b61010a60048036038101906101059190611233565b6108e4565b60405161011791906118e8565b60405180910390f35b61013a60048036038101906101359190611360565b610bf8565b60405161014a94939291906117b1565b60405180910390f35b61016d60048036038101906101689190611233565b610d68565b60405161017a9190611826565b60405180910390f35b61019d6004803603810190610198919061129d565b610e08565b005b6000600160003373ffffffffffffffffffffffffffffffffffffffff1673ffffffffffffffffffffffffffffffffffffffff16815260200190815260200160002080546101eb90611a64565b90501161022d576040517f08c379a000000000000000000000000000000000000000000000000000000000815260040161022490611868565b60405180910390fd5b6000815111610271576040517f08c379a0000000000000000000000000000000000000000000000000000000008152600401610268906118c8565b60405180910390fd5b60c8815111156102b6576040517f08c379a00000000000000000000000000000000000000000000000000000000081526004016102ad90611848565b60405180910390fd5b600060405180608001604052803373ffffffffffffffffffffffffffffffffffffffff168152602001600160003373ffffffffffffffffffffffffffffffffffffffff1673ffffffffffffffffffffffffffffffffffffffff168152602001908152602001600020805461032990611a64565b80601f016020809104026020016040519081016040528092919081815260200182805461035590611a64565b80156103a25780601f10610377576101008083540402835291602001916103a2565b820191906000526020600020905b81548152906001019060200180831161038557829003601f168201915b50505050508152602001838152602001428152509050600081908060018154018082558091505060019003906000526020600020906004020160009091909190915060008201518160000160006101000a81548173ffffffffffffffffffffffffffffffffffffffff021916908373ffffffffffffffffffffffffffffffffffffffff16021790555060208201518160010190805190602001906104479291906110b9565b5060408201518160020190805190602001906104649291906110b9565b506060820151816003015550505050565b60606000805480602002602001604051908101604052809291908181526020016000905b8282101561064f57838290600052602060002090600402016040518060800160405290816000820160009054906101000a900473ffffffffffffffffffffffffffffffffffffffff1673ffffffffffffffffffffffffffffffffffffffff1673ffffffffffffffffffffffffffffffffffffffff16815260200160018201805461052290611a64565b80601f016020809104026020016040519081016040528092919081815260200182805461054e90611a64565b801561059b5780601f106105705761010080835404028352916020019161059b565b820191906000526020600020905b81548152906001019060200180831161057e57829003601f168201915b505050505081526020016002820180546105b490611a64565b80601f01602080910402602001604051908101604052809291908181526020018280546105e090611a64565b801561062d5780601f106106025761010080835404028352916020019161062d565b820191906000526020600020905b81548152906001019060200180831161061057829003601f168201915b5050505050815260200160038201548152505081526020019060010190610499565b50505050905090565b6002818051602081018201805184825260208301602085012081835280955050505050506000915090508060000160009054906101000a900473ffffffffffffffffffffffffffffffffffffffff16908060010180546106b790611a64565b80601f01602080910402602001604051908101604052809291908181526020018280546106e390611a64565b80156107305780601f1061070557610100808354040283529160200191610730565b820191906000526020600020905b81548152906001019060200180831161071357829003601f168201915b50505050509080600201805461074590611a64565b80601f016020809104026020016040519081016040528092919081815260200182805461077190611a64565b80156107be5780601f10610793576101008083540402835291602001916107be565b820191906000526020600020905b8154815290600101906020018083116107a157829003601f168201915b5050505050908060030180546107d390611a64565b80601f01602080910402602001604051908101604052809291908181526020018280546107ff90611a64565b801561084c5780601f106108215761010080835404028352916020019161084c565b820191906000526020600020905b81548152906001019060200180831161082f57829003601f168201915b50505050509080600401805461086190611a64565b80601f016020809104026020016040519081016040528092919081815260200182805461088d90611a64565b80156108da5780601f106108af576101008083540402835291602001916108da565b820191906000526020600020905b8154815290600101906020018083116108bd57829003601f168201915b5050505050905085565b6108ec61113f565b6002600160008473ffffffffffffffffffffffffffffffffffffffff1673ffffffffffffffffffffffffffffffffffffffff16815260200190815260200160002060405161093a919061172b565b90815260200160405180910390206040518060a00160405290816000820160009054906101000a900473ffffffffffffffffffffffffffffffffffffffff1673ffffffffffffffffffffffffffffffffffffffff1673ffffffffffffffffffffffffffffffffffffffff1681526020016001820180546109b990611a64565b80601f01602080910402602001604051908101604052809291908181526020018280546109e590611a64565b8015610a325780601f10610a0757610100808354040283529160200191610a32565b820191906000526020600020905b815481529060010190602001808311610a1557829003601f168201915b50505050508152602001600282018054610a4b90611a64565b80601f0160208091040260200160405190810160405280929190818152602001828054610a7790611a64565b8015610ac45780601f10610a9957610100808354040283529160200191610ac4565b820191906000526020600020905b815481529060010190602001808311610aa757829003601f168201915b50505050508152602001600382018054610add90611a64565b80601f0160208091040260200160405190810160405280929190818152602001828054610b0990611a64565b8015610b565780601f10610b2b57610100808354040283529160200191610b56565b820191906000526020600020905b815481529060010190602001808311610b3957829003601f168201915b50505050508152602001600482018054610b6f90611a64565b80601f0160208091040260200160405190810160405280929190818152602001828054610b9b90611a64565b8015610be85780601f10610bbd57610100808354040283529160200191610be8565b820191906000526020600020905b815481529060010190602001808311610bcb57829003601f168201915b5050505050815250509050919050565b60008181548110610c0857600080fd5b90600052602060002090600402016000915090508060000160009054906101000a900473ffffffffffffffffffffffffffffffffffffffff1690806001018054610c5190611a64565b80601f0160208091040260200160405190810160405280929190818152602001828054610c7d90611a64565b8015610cca5780601f10610c9f57610100808354040283529160200191610cca565b820191906000526020600020905b815481529060010190602001808311610cad57829003601f168201915b505050505090806002018054610cdf90611a64565b80601f0160208091040260200160405190810160405280929190818152602001828054610d0b90611a64565b8015610d585780601f10610d2d57610100808354040283529160200191610d58565b820191906000526020600020905b815481529060010190602001808311610d3b57829003601f168201915b5050505050908060030154905084565b60016020528060005260406000206000915090508054610d8790611a64565b80601f0160208091040260200160405190810160405280929190818152602001828054610db390611a64565b8015610e005780601f10610dd557610100808354040283529160200191610e00565b820191906000526020600020905b815481529060010190602001808311610de357829003601f168201915b505050505081565b6000600160003373ffffffffffffffffffffffffffffffffffffffff1673ffffffffffffffffffffffffffffffffffffffff1681526020019081526020016000208054610e5490611a64565b905014610e96576040517f08c379a0000000000000000000000000000000000000000000000000000000008152600401610e8d90611888565b60405180910390fd5b600073ffffffffffffffffffffffffffffffffffffffff16600285604051610ebe9190611714565b908152602001604051809103902060000160009054906101000a900473ffffffffffffffffffffffffffffffffffffffff1673ffffffffffffffffffffffffffffffffffffffff1614610f46576040517f08c379a0000000000000000000000000000000000000000000000000000000008152600401610f3d906118a8565b60405180910390fd5b6040518060a001604052803373ffffffffffffffffffffffffffffffffffffffff16815260200184815260200185815260200183815260200182815250600285604051610f939190611714565b908152602001604051809103902060008201518160000160006101000a81548173ffffffffffffffffffffffffffffffffffffffff021916908373ffffffffffffffffffffffffffffffffffffffff16021790555060208201518160010190805190602001906110049291906110b9565b5060408201518160020190805190602001906110219291906110b9565b50606082015181600301908051906020019061103e9291906110b9565b50608082015181600401908051906020019061105b9291906110b9565b5090505083600160003373ffffffffffffffffffffffffffffffffffffffff1673ffffffffffffffffffffffffffffffffffffffff16815260200190815260200160002090805190602001906110b29291906110b9565b5050505050565b8280546110c590611a64565b90600052602060002090601f0160209004810192826110e7576000855561112e565b82601f1061110057805160ff191683800117855561112e565b8280016001018555821561112e579182015b8281111561112d578251825591602001919060010190611112565b5b50905061113b9190611184565b5090565b6040518060a00160405280600073ffffffffffffffffffffffffffffffffffffffff168152602001606081526020016060815260200160608152602001606081525090565b5b8082111561119d576000816000905550600101611185565b5090565b60006111b46111af8461192f565b61190a565b9050828152602081018484840111156111cc57600080fd5b6111d7848285611a22565b509392505050565b6000813590506111ee81611c4f565b92915050565b600082601f83011261120557600080fd5b81356112158482602086016111a1565b91505092915050565b60008135905061122d81611c66565b92915050565b60006020828403121561124557600080fd5b6000611253848285016111df565b91505092915050565b60006020828403121561126e57600080fd5b600082013567ffffffffffffffff81111561128857600080fd5b611294848285016111f4565b91505092915050565b600080600080608085870312156112b357600080fd5b600085013567ffffffffffffffff8111156112cd57600080fd5b6112d9878288016111f4565b945050602085013567ffffffffffffffff8111156112f657600080fd5b611302878288016111f4565b935050604085013567ffffffffffffffff81111561131f57600080fd5b61132b878288016111f4565b925050606085013567ffffffffffffffff81111561134857600080fd5b611354878288016111f4565b91505092959194509250565b60006020828403121561137257600080fd5b60006113808482850161121e565b91505092915050565b60006113958383611601565b905092915050565b6113a6816119e6565b82525050565b6113b5816119e6565b82525050565b60006113c682611985565b6113d081856119a8565b9350836020820285016113e285611960565b8060005b8581101561141e57848403895281516113ff8582611389565b945061140a8361199b565b925060208a019950506001810190506113e6565b50829750879550505050505092915050565b600061143b82611990565b61144581856119b9565b9350611455818560208601611a31565b61145e81611b25565b840191505092915050565b600061147482611990565b61147e81856119ca565b935061148e818560208601611a31565b61149781611b25565b840191505092915050565b60006114ad82611990565b6114b781856119db565b93506114c7818560208601611a31565b80840191505092915050565b600081546114e081611a64565b6114ea81866119db565b94506001821660008114611505576001811461151657611549565b60ff19831686528186019350611549565b61151f85611970565b60005b8381101561154157815481890152600182019150602081019050611522565b838801955050505b50505092915050565b600061155f6014836119ca565b915061156a82611b36565b602082019050919050565b60006115826026836119ca565b915061158d82611b5f565b604082019050919050565b60006115a56005836119ca565b91506115b082611bae565b602082019050919050565b60006115c86029836119ca565b91506115d382611bd7565b604082019050919050565b60006115eb6017836119ca565b91506115f682611c26565b602082019050919050565b6000608083016000830151611619600086018261139d565b50602083015184820360208601526116318282611430565b9150506040830151848203604086015261164b8282611430565b915050606083015161166060608601826116f6565b508091505092915050565b600060a083016000830151611683600086018261139d565b506020830151848203602086015261169b8282611430565b915050604083015184820360408601526116b58282611430565b915050606083015184820360608601526116cf8282611430565b915050608083015184820360808601526116e98282611430565b9150508091505092915050565b6116ff81611a18565b82525050565b61170e81611a18565b82525050565b600061172082846114a2565b915081905092915050565b600061173782846114d3565b915081905092915050565b600060a08201905061175760008301886113ac565b81810360208301526117698187611469565b9050818103604083015261177d8186611469565b905081810360608301526117918185611469565b905081810360808301526117a58184611469565b90509695505050505050565b60006080820190506117c660008301876113ac565b81810360208301526117d88186611469565b905081810360408301526117ec8185611469565b90506117fb6060830184611705565b95945050505050565b6000602082019050818103600083015261181e81846113bb565b905092915050565b600060208201905081810360008301526118408184611469565b905092915050565b6000602082019050818103600083015261186181611552565b9050919050565b6000602082019050818103600083015261188181611575565b9050919050565b600060208201905081810360008301526118a181611598565b9050919050565b600060208201905081810360008301526118c1816115bb565b9050919050565b600060208201905081810360008301526118e1816115de565b9050919050565b60006020820190508181036000830152611902818461166b565b905092915050565b6000611914611925565b90506119208282611a96565b919050565b6000604051905090565b600067ffffffffffffffff82111561194a57611949611af6565b5b61195382611b25565b9050602081019050919050565b6000819050602082019050919050565b60008190508160005260206000209050919050565b600081519050919050565b600081519050919050565b6000602082019050919050565b600082825260208201905092915050565b600082825260208201905092915050565b600082825260208201905092915050565b600081905092915050565b60006119f1826119f8565b9050919050565b600073ffffffffffffffffffffffffffffffffffffffff82169050919050565b6000819050919050565b82818337600083830152505050565b60005b83811015611a4f578082015181840152602081019050611a34565b83811115611a5e576000848401525b50505050565b60006002820490506001821680611a7c57607f821691505b60208210811415611a9057611a8f611ac7565b5b50919050565b611a9f82611b25565b810181811067ffffffffffffffff82111715611abe57611abd611af6565b5b80604052505050565b7f4e487b7100000000000000000000000000000000000000000000000000000000600052602260045260246000fd5b7f4e487b7100000000000000000000000000000000000000000000000000000000600052604160045260246000fd5b6000601f19601f8301169050919050565b7f74686f7567687420697320746f6f206c6f6e672e000000000000000000000000600082015250565b7f796f75206d757374205369676e696e2066697273742c20746f20706f7374207460008201527f686f756768740000000000000000000000000000000000000000000000000000602082015250565b7f636865636b000000000000000000000000000000000000000000000000000000600082015250565b7f557365726e616d652069732074616b656e2c20706c656173652074727920616e60008201527f6f74686572206f6e650000000000000000000000000000000000000000000000602082015250565b7f74686f756768742063616e6e6f7420626520656d707479000000000000000000600082015250565b611c58816119e6565b8114611c6357600080fd5b50565b611c6f81611a18565b8114611c7a57600080fd5b5056fea2646970667358221220d52fb5e43b1fb81e4dac5e8f6c5f608dd355a853f3d8ddacee3db027c288d80c64736f6c63430008040033",
  "linkReferences": {},
  "deployedLinkReferences": {}
}